:040000008831882B90
:1000080070082000D5007108D4007208D300730866
:10001800D2007408D1007508D0008031883174226C
:1000280080315508F0005408F1005308F2005208D6
:0C003800F3005108F4005008F500090026
:100044001E303D00990030302000DF000030E00019
:100054005F0886006008870081135F0886006008D7
:100064008700011304305F0786000030603D87007D
:1000740001173830EC000030ED006C0886006D0884
:10008400870081136C0886006D0887000113043013
:100094006C07860000306D3D8700011702305F0752
:1000A40086000030603D87006708810068084131A0
:1000B400810001305F0786000030603D87004030DA
:1000C40081005F088400600885000008F0005F0874
:1000D4008600600887004030700581005F08840056
:1000E400600885000008F0005F088600600887004B
:1000F4008830700481005F08D8006008D90004309B
:0A0104005F06F0007008DF0008003D
:10010E0020004008803A031DEB28C030E400DE28B2
:10011E007A30F0008C30F1007008E2007108E300D4
:10012E001230E5000030E600EB284208F000F10145
:10013E00F035F10D6D30700784000130713D850092
:10014E000008E20001310008E3000230620784007B
:10015E000030633D85000008F00001310008F10019
:10016E007008E5007108E600EB2842086E02031CD9
:10017E00DA284208F000F101F035F10DA0307007D9
:10018E0084000130713D85000008E2000131000855
:10019E00E30062088400630885000008F000700820
:1001AE00E500E601DB28E401EB28E401EB28430837
:1001BE00013A03198F284308023A03199C28430871
:0A01CE00033A0319BC28DC280800DE
:1001D8002000E4173D0099012000DC014208D60008
:1001E8005608003A031DFB281030D700FE2820309F
:0601F800D70022200800E0
:1001FE00003020006602031D062908306502031830
:10020E001A296508F2006608F3005B08003A031D20
:10021E0013290130DB0019295B08013A031D192946
:10022E000230DB001E290830F2000030F3006A08AD
:10023E0086006B08870081106A0886006B088700AD
:10024E0001106A0884006B0885000008F0006A0837
:10025E0086006B08870073087004810001306A07FE
:10026E00860000306B3D87007208810072086502BF
:10027E00F0007308663BF1007008E5007108E600B7
:10028E0048302100E6000030E700200064187A298B
:10029E0072087304031979296208840063088500C3
:1002AE000008F000210066088600670887007008C5
:1002BE008100E60A0319E70A013020006207F00008
:1002CE000030633DF1007008E2007108E300013078
:1002DE007202F0000030733BF1007008F2007108FA
:1002EE00F3004F29A229720873040319A229620888
:1002FE008400630885002100660886006708870071
:10030E0000088100E60A0319E70A0130200062079F
:10031E00F0000030633DF1007008E2007108E30068
:10032E0001307202F0000030733BF1007008F200F1
:08033E007108F3007A290800A0
:1003460020004208013A031DB9294008F1001F3078
:10035600F1057108003A031DB929E4174108033A6B
:10036600031DB8290130E100B929E1014208003A2C
:10037600031D492A4008F1001F30F1057108023AB1
:10038600031D492A4408F1000F30F1057108003AAF
:100396000319492AE417C41BE5294408F3000F3062
:1003A600F3057308F000F101F035F10D5D307007CB
:1003B60084000030713D85000008F400013100081A
:1003C600F500F9294408F3000F30F3057308F0002F
:1003D600F101F035F10D6A30700784000030713D8F
:1003E60085000008F40001310008F5004108033AD1
:1003F600031D042A7408860075088700843081006E
:10040600492A4408F0000F30F0059830F2000E300B
:10041600F3007008F2070318F30A720884007308E1
:100426008500FE300005F00001310008F100FF30C4
:10043600F10572088600730887007008810071084C
:1004460041318100C41F382A740886007508870068
:10045600810104307406F0007008F4007408860008
:100466007508870040308100492A7408860075089F
:1004760087008830810004307406F0007008F400AC
:0E0486007408860075088700C83081000800E1
:1004940020004008F1001F30F1057108013A0319EA
:1004A400542AE72A4408003A0319592AE72A41083A
:1004B400063A031D972A8B2A5608013A031D742A0B
:1004C400EC30F0008B30F1001230F0070030F13DD9
:1004D4007008E2007108E3000930E5000030E6002E
:1004E400C030E400972A5608013A031D872A3B309E
:1004F400F0008C30F1007008E2007108E300213054
:10050400E5000030E600C030E400972A8030E400C3
:10051400972A4308213A03195E2A4308223A031909
:10052400752A4308233A0319882A4008F1006030E9
:10053400F1050530F00070080319A32AF136FF3ED7
:100544009E2A7108013A0319A82AE72ACE2AE72A23
:10055400E72A6A30E2000130E3000130E5000030B0
:10056400E600C130E400E72A8030E40043082200BA
:10057400EA00E72A69302000E2000130E30001309C
:10058400E5000030E6008130E400E72A8030E40032
:1005940042082200E900E72A20004108013A031931
:1005A400A92A4108093A0319AA2A4108023A031957
:1005B400AB2A41080A3A0319B62A4108033A031937
:0C05C400BC2A41080B3A0319C82A0800A1
:1005D0002000C801C9012D2BE41748146108013A15
:1005E000031DF32AC814452BE417452BE417C41B3D
:1005F0000E2B4408F3000F30F3057308F000F101EF
:10060000F035F10D5D30700784000030713D8500DC
:100610000008F40001310008F500222B4408F30023
:100620000F30F3057308F000F101F035F10D6A3079
:10063000700784000030713D85000008F40001312E
:100640000008F50074088400750885000008F100B2
:10065000711D2C2B0130C800452B4008F1001F30C4
:10066000F1057108003A0319EC2A4008F1001F3027
:10067000F1057108013A0319F42A4008F1001F300E
:10068000F1057108023A0319F62AE41F4E2B48308F
:0E069000E2000030E30064140230E5000800D0
:10069E00013021006E07840000306F3D8500000898
:1006AE00F0007008F200003022006402031D612B7E
:1006BE00720863020318662B6308F200702B72082F
:1006CE006302F0000030643BF1007008E300710833
:1006DE00E400F301720873020318912B4830840072
:1006EE0000308500730884070318850A0008F0009F
:1006FE00600886006108870070088100013060077D
:10070E00F0000030613DF1007008E0007108E1007A
:10071E00F30A712B6408003C031D972B6308003C01
:10072E000318C32B013021006C07860000306D3D8D
:10073E0087000830810002306C07860000306D3D66
:10074E008700483081000030413181006E088400FE
:10075E006F0885000008F000701BBC2B6C0886002B
:10076E006D088700C8308100C22B6C0886006D08AA
:10077E00870088308100DF2B210001306C07860056
:10078E0000306D3D87000830810002306C07860016
:10079E0000306D3D870040308100003041318100D6
:1007AE006C0886006D088700843081002200E213F9
:0207BE00080031
:1007C000EC302200ED008B30EE00F9302300A00069
:1007D0008730A1001530A2008C30A3005C30A4004B
:0607E0008C30A5000800AA
:1007E6002000DA016A0886006B0887008101043060
:1007F6006A0686006B0887000030870681012200A2
:08080600E21F062CE2130800BA
:0C080E002000690803190C2C4A22080085
:10081A003D000E122000E41B622C2200E21F402C35
:10082A0002302000DA0001306A07860000306B3D92
:10083A00870081016A0886006B088700C83081003A
:10084A00013021006C07860000306D3D87000830BA
:10085A00810002306C07860000306D3D8700483009
:10086A0081000030413181006C0886006D088700E4
:10087A00C8308100612C210001306C0786000030ED
:10088A006D3D87000830810002306C078600003019
:10089A006D3D8700403081000030413181006C0895
:1008AA0086006D0887008C30810020006A08860067
:1008BA006B08870084308100EC2C2200E21BEC2CB0
:1008CA002000C01FC32C66084702031D6E2C650852
:1008DA0046020318742C4608E5004708E600FF2084
:1008EA000130DA00013021006C07860000306D3DCE
:1008FA0087000830810002306C07860000306D3DA9
:10090A008700403081000030413181006C08860048
:10091A006D088700803081002200EB010130210040
:10092A006E07860000306F3D870008308100023074
:10093A006E07860000306F3D87004030810000302E
:10094A00413181006E0886006F088700843081007B
:10095A0001302200EB00023020006A0786000030D6
:10096A006B3D8700483081000030413181006A08C0
:10097A0086006B088700C8308100EC2C0230DA0050
:10098A0001306A07860000306B3D870081016A08E2
:10099A0086006B088700C8308100013021006C078F
:1009AA00860000306D3D87000830810002306C07F8
:1009BA00860000306D3D87004830810000304131AB
:1009CA0081006C0886006D088700C8308100080025
:1009DA0016303D0091009F3097003B30920008008E
:1009EA0020004008F1006030F1050530F000700881
:1009FA000319022DF136FF3EFD2C7108003A031946
:100A0A00072D692D3C2DE4170830D700692D872062
:100A1A00692DEC20692D5630E2000030E3006414A1
:100A2A000130E500E417692DE822692DA321692D1B
:100A3A005C30F0000030F1004408F0070318F10AB6
:100A4A007008E2007108E30064140130E500E4175D
:100A5A00692DE4175C308600003087004408860759
:100A6A000318870A42088100692D692D692D4108FA
:100A7A00053A0319082D4108063A03190C2D4108B5
:100A8A00093A03190E2D4108083A0319102D410895
:100A9A00003A0319192D4108013A03191B2D41087F
:100AAA00033A03191B2D41080A3A03191D2D41085F
:100ABA000B3A03192E2D4108073A03193A2D41081A
:0A0ACA000C3A03193B2D3B2D0800E8
:100AD400E0232000D801D9012100E401E5013D0013
:100AE40093019001ED240E17960199010E13210034
:100AF400E801E90100306902031D822D0830680213
:100B040003189D2D6808F0006908F100F035F10D17
:100B1400F035F10D2030700786000030713D8700FC
:100B24008101413181014131810141318101E80A71
:100B34000319E90A7C2D16303D009800901DA52D5F
:100B4400F7309005A02D2000E4012200E201E3012A
:100B5400E4013D000E1228302000EA000030EB00D2
:060B6400D601D7010800D4
:060B6A002000121108003A
:100B70003D00181CDA2D21006E0884006F088500E6
:100B80000008F1007108803A031DD82D20006A0882
:100B900084006B0885000008F1007108843A031D89
:100BA000D82D21006E0886006F0887008C308100E8
:0A0BB0003D001810DF30900508002A
:0C0BBA003D001215EF3090058E1408006D
:100BC600043020006A06F0007008EA005708083A68
:100BD600031DFB2D42083D0096001608003C031835
:100BE600F82D10302000D700FB2D20000430D70050
:100BF6005A08013A031D3B2E02306A078600003070
:100C06006B3D870048308100003041318100FF2074
:100C16005B08023A031D162E6A0886006B088700D9
:100C2600843081003A2E04306A06F0007008EA002B
:100C36006A0884006B0885000008F000701B2F2EE0
:100C460004306A06F0007008EA006A0886006B083D
:100C56008700C83081003A2E04306A06F00070081A
:100C6600EA006A0886006B088700883081003C2EFF
:040C7600F32308005C
:100C7A0020006A0884006B0885000008F000F01F55
:100C8A004B2E6A0886006B0887008101DB01DA01B6
:0E0C9A00E501E601E401F52407240D2408001D
:100CA8003D008E101211101D5C2EFB309005572E42
:020CB800080032
:100CBA0020005A08023A031D642E4F23862EF3237E
:100CCA006B08003A031D842E013021006C07860050
:100CDA0000306D3D87000830810002306C078600C5
:100CEA0000306D3D87004030810000304131810085
:100CFA006C0886006D0887008C308100862E2200E1
:040D0A00EB010800F1
:100D0E0023003508003A03199D2E3408F000F10136
:100D1E00F035F10D6A30700784000030713D8500AA
:100D2E000008F40001310008F500AD2E3408F00083
:100D3E00F101F035F10D5D30700784000030713D2A
:100D4E0085000008F40001310008F5000230740738
:100D5E0086000030753D8700360881003708413126
:100D6E0081000130740786000030753D8700380819
:100D7E00810074088400750885000008F00074086E
:100D8E008600750887004030700581007408840065
:100D9E00750885000008F000740886007508870045
:100DAE008830700481003508003A0319F72E340894
:100DBE00F000F101F035F10D6A307007F2000030ED
:100DCE00713DF3007208840073088500043000063C
:100DDE00F0007208860073088700700881000F2FDC
:100DEE003408F000F101F035F10D5D307007F200BE
:100DFE000030713DF30072088400730885000430E2
:100E0E000006F000720886007308870070088100E3
:0A0E1E007408F0007508F1000800E8
:100E28007A30F0008C30F1000E307007840000300A
:100E3800713D85000008F2007208F3000F3070075A
:100E480084000030713D85000008F10071087202CD
:100E580003183A2F7A30F0008C30F1000F30700709
:100E680084000030713D85000008F3007A30F000FE
:100E78008C30F1001030700784000030713D85001F
:100E88000008F100710873020318562F7A30F00039
:100E98008C30F1001030700784000030713D8500FF
:0A0EA8000008F3007308F0000800D2
:100EB200003023003506031D602F00303406031D69
:100EC200642FF1016E2F3408840035088500000874
:100ED200F0000030F01B0130F1007108F000080052
:0A0EE2000B17210012158B170800F2
:100EEC0020005708003A031D882F3D008E01920107
:100EFC00ED2471273D008E19852F8E15802F013022
:060F0C002000D7000800E0
:100F12002300B301203020005702031C942F3D0010
:100F22008E18942F962FF001D32F200058082300FB
:100F3200B400200059082300B50059277008031D8A
:100F4200D22F200058082300B100200059082300A6
:100F5200B200003020005906031DB12F00305806A0
:100F62000319BE2F01302300310784000030323DC7
:100F720085000008F0007008B30023003008B400B8
:100F8200B5012D08B6002E08B7002F08B800872635
:100F920070082000D8007108D90023003308F0003F
:060FA200D32FF00108004E
:100FA800142770082300AD00EC30B4008B30B50076
:100FB8008831262180317008AE002D087002031890
:0E0FC800E82F2D08F000EA2F2E08F000080098
:100FD600200067082300AD00200068082300AE004B
:0C0FE6004030AF000130B0008927080047
:1010000020005708003A031D12283D008E0192016E
:101010008031ED2488318E190F288E150B28013070
:101020002000D7005708013A031D20283D008E1AE2
:101030002028900192011214121602302000D700CD
:101040003D00101D2A28121D2A28FB3090058031F2
:10105000542688318E1C30288031B52588312529C9
:101060003D00101C4D28121C4D2880316A25883106
:101070000430D7004030A2000030A3000830A100A7
:1010800000302005F0007008A0008C302004F00033
:101090007008A000FE303D009005101E5628121E5C
:1010A00056288031DD258831EF309005101F5C28EF
:1010B000121F5C28BF309005901E6328921E632883
:1010C0008031B8258831901C6828921C68289301CB
:1010D000043020005702031871288031B52588316B
:1010E00025293D00921D22292300B5010430350237
:1010F000031822293D00901D1E290F082000EF0033
:10110000F7303D009005783020006F05F100710840
:10111000003A031D1D29FD306F05F100F201FF307B
:10112000F20500307206031D972800307106031D7A
:101130000A297E306F05F1007108F300F336730859
:10114000F000F101F035F10DF035F10D20307007B0
:10115000F2000030713DF30072082100EE007308C8
:10116000EF007208EC007308ED0004306C06F0002C
:101170007008EC0072088400730885000008F00015
:101180007008F1003C30F105F136F13671080D3A86
:10119000031D062902306E07840000306F3D850074
:1011A0000008F10001310008F2007208003A031D46
:1011B000DB2848307106031D022902306E078600C5
:1011C00000306F3D870040308100003041318100A8
:1011D0002300B4010830340203180229403086008D
:1011E00000308700340886070318870A48308400D7
:1011F00000308500340884070318850A0008810040
:10120000B40AEA2880313D268831092980315D26DB
:1012100088311C29FD3020006F05F100F201FF30FC
:10122000F20500307206031D172904307106031DF4
:101230001C298031E32588311D291F2922292300FB
:0C124000B50A76288031B52588310800F9
:10124C002300B601B701B801023034078400003026
:10125C00353D85000008F50003303407840000306C
:10126C00353D85000008F0007008F300F4017308A8
:10127C00F100F00175087007F6000030713DF700C1
:10128C003408F8003508F900013078078400003084
:10129C00793D85000008F1007108023A031D6A29A6
:1012AC000630780784000030793D85000008F10095
:1012BC007108360203186A2906307807840000305A
:1012CC00793D85000008B6000130780784000030B5
:1012DC00793D85000008F1007108043A031D8A2944
:1012EC000830780784000030793D85000008F10053
:1012FC007108360203188A290830780784000030F8
:10130C00793D85000008B6007808840079088500CE
:10131C000008F00070083707F1000030383DF2008B
:10132C007108B7007208B80077087202031DA02973
:10133C0076087102031CA329AE2978088400790869
:10134C0085000008F0007008F8070030F93D4A29C4
:06135C003608F000080055
:10136200203020005702031CBA293D008E18BA29EA
:10137200BC29F001272A210064082300B4002100BF
:1013820065082300B5008031592788317008031D94
:10139200262A3008B4000130B5002D08B6002E0808
:1013A200B7002F08B80080318726883170082100E5
:1013B200E4007108E500E001E101E201E3016408F3
:1013C2002300B400210065082300B50080315927AD
:1013D200883170080319092A203020005702031CA3
:1013E200F6293D008E18F629F829F001272A013046
:1013F200F1007108003A031DFF2900202100600856
:101402006104620463040319082AF001272AE0290F
:10141200210064082300B100210065082300B20006
:10142200003021006506031D182A003064060319E6
:10143200242A01302300310784000030323D850028
:0E1442000008F000272AF001272AF001080018
:1014500023002808F1002908F20000302C06031DA3
:10146000332A00302B060319432A0130AB02003027
:10147000AC3B71088600720887002A088100F10AD7
:081480000319F20A2D2A0800ED
:1014880023002808AD002908AE002A08AF00013063
:06149800B000B1210800C4
:10149E008031D427883170082000EE000130E90039
:1014AE00230028082000E700230029082000E80078
:1014BE0023002A082100EA0023002B082100EB005C
:1014CE0080316A2588310130F1007108013A031D1F
:0A14DE00732A803176278831080058
:1014E80020005708013A031D822A3D008E1A822ADD
:1014F80090011214121602302000D7003D00101D72
:101508008C2A121D8C2AFB30900580315426883194
:101518008E1C922A8031B5258831872B3D00101CFE
:10152800AF2A121CAF2A80316A2588310430D700CF
:101538004030A2000030A3000830A1000030200590
:10154800F0007008A0008C302004F0007008A000A3
:10155800FE303D009005101EB82A121EB82A8031B0
:10156800DD258831EF309005101FBE2A121FBE2AD4
:10157800BF309005901EC52A921EC52A8031B82515
:101588008831901CCA2A921CCA2A93010430200070
:1015980057020318D32A8031B5258831872B3D009F
:1015A800921D842B2300BA0104303A020318842BBD
:1015B8003D00901D802B0F082000EF00F7303D0004
:1015C8009005783020006F05F1007108003A031D7E
:1015D8007F2BFD306F05F100F201FF30F20500307E
:1015E8007206031DF92A00307106031D6C2B7E302C
:1015F8006F05F1007108F300F3367308F000F1018C
:10160800F035F10DF035F10D20307007F2000030A3
:10161800713DF30072082100EE007308EF007208B4
:10162800EC007308ED0004306C06F0007008EC0064
:1016380072088400730885000008F0007008F10043
:101648003C30F105F136F13671080D3A031D682B6F
:1016580002306E07840000306F3D85000008F100FD
:1016680001310008F2007208003A031D3D2B483092
:101678007106031D642B02306E07860000306F3D33
:101688008700403081000030413181002300B901DA
:10169800083039020318642B403086000030870078
:1016A800390886070318870A483084000030850007
:1016B800390884070318850A00088100B90A4C2BE9
:1016C80080313D2688316B2B80315D2688317E2B19
:1016D800FD3020006F05F100F201FF30F205003007
:1016E8007206031D792B04307106031D7E2B803191
:1016F800E32588317F2B812B842B2300BA0AD82A33
:081708008031B525883108008D
:10171000FC302100990023008C018E0121008E15E0
:1017200020008E19952B0314962B031000300318FC
:1017300001302200EF0021008C1222008C12503068
:101740002300A8002030A900A030AA002030AB0060
:101750004F2220008E19AE2B0314AF2B0310003044
:10176000031801302200EC006C086F060319D82B17
:10177000A0302300A6002030A7002608A8002708D4
:10178000A900AA014030AB00AC012822A03086009D
:101790002030870022006C08810023002608A80062
:1017A0002708A9004030AA00442222006C08EF005C
:1017B0008031EB2788317008003A0319EA2B50304A
:1017C0008400203085000018E82B22008C12EA2BC0
:0817D00022008C16A92BEB2B63
:080FF200043403340934043413
:1017D80009340234293400340134013400348034AB
:1017E800FA34093404340034003402340334003445
:1017F8000034003409342134013401340034013414
:10180800223421340034073405348134033440341D
:1018180000340134073405340134033440340034CF
:02182800013489
:10182A00263403344D340034753400346E340034B5
:10183A0074340034733400342034003454340034A3
:10184A006534003463340034683400346E34003450
:10185A006F3400346C3400346F340034673400342D
:0C186A00693400346534003473340034F9
:1018760006340034FF3409340134A13401341934F8
:10188600013429344034153400342634FF3400340E
:1018960075340834953440348134023419340134B3
:1018A6002934403475340834953440349134023444
:0218B600C0343C
:1018B8001E34033455340034533400344234003475
:1018C800203400344834003449340034443400347B
:1018D8002034003444340034653400347634003421
:0C18E8006934003463340034653400348B
:1018F4001234013400340234003400340034083427
:10190400D0341634FA340A34013400340134023445
:041914000034013466
:020000040001F9
:04000E00A408C31B64
:00000001FF
